{
  "contractName": "VotingSystem",
  "abi": [
    {
      "inputs": [],
      "stateMutability": "nonpayable",
      "type": "constructor"
    },
    {
      "anonymous": false,
      "inputs": [
        {
          "indexed": true,
          "internalType": "uint256",
          "name": "electionId",
          "type": "uint256"
        },
        {
          "indexed": true,
          "internalType": "uint256",
          "name": "candidateId",
          "type": "uint256"
        },
        {
          "indexed": false,
          "internalType": "string",
          "name": "name",
          "type": "string"
        }
      ],
      "name": "CandidateAdded",
      "type": "event"
    },
    {
      "anonymous": false,
      "inputs": [
        {
          "indexed": true,
          "internalType": "address",
          "name": "funder",
          "type": "address"
        },
        {
          "indexed": false,
          "internalType": "uint256",
          "name": "amount",
          "type": "uint256"
        }
      ],
      "name": "ContractFunded",
      "type": "event"
    },
    {
      "anonymous": false,
      "inputs": [
        {
          "indexed": true,
          "internalType": "uint256",
          "name": "electionId",
          "type": "uint256"
        },
        {
          "indexed": false,
          "internalType": "string",
          "name": "name",
          "type": "string"
        },
        {
          "indexed": false,
          "internalType": "string",
          "name": "organizationName",
          "type": "string"
        },
        {
          "indexed": false,
          "internalType": "uint256",
          "name": "scheduledStart",
          "type": "uint256"
        },
        {
          "indexed": false,
          "internalType": "uint256",
          "name": "scheduledEnd",
          "type": "uint256"
        }
      ],
      "name": "ElectionCreated",
      "type": "event"
    },
    {
      "anonymous": false,
      "inputs": [
        {
          "indexed": true,
          "internalType": "uint256",
          "name": "electionId",
          "type": "uint256"
        }
      ],
      "name": "ElectionUpdated",
      "type": "event"
    },
    {
      "anonymous": false,
      "inputs": [
        {
          "indexed": true,
          "internalType": "address",
          "name": "owner",
          "type": "address"
        },
        {
          "indexed": false,
          "internalType": "uint256",
          "name": "amount",
          "type": "uint256"
        }
      ],
      "name": "FundsWithdrawn",
      "type": "event"
    },
    {
      "anonymous": false,
      "inputs": [
        {
          "indexed": true,
          "internalType": "uint256",
          "name": "electionId",
          "type": "uint256"
        },
        {
          "indexed": true,
          "internalType": "address",
          "name": "voter",
          "type": "address"
        },
        {
          "indexed": true,
          "internalType": "uint256",
          "name": "candidateId",
          "type": "uint256"
        }
      ],
      "name": "VoteCast",
      "type": "event"
    },
    {
      "anonymous": false,
      "inputs": [
        {
          "indexed": true,
          "internalType": "address",
          "name": "voter",
          "type": "address"
        },
        {
          "indexed": false,
          "internalType": "uint256",
          "name": "amount",
          "type": "uint256"
        }
      ],
      "name": "VoterFunded",
      "type": "event"
    },
    {
      "anonymous": false,
      "inputs": [
        {
          "indexed": true,
          "internalType": "uint256",
          "name": "electionId",
          "type": "uint256"
        },
        {
          "indexed": true,
          "internalType": "address",
          "name": "voter",
          "type": "address"
        }
      ],
      "name": "VoterRegistered",
      "type": "event"
    },
    {
      "anonymous": false,
      "inputs": [
        {
          "indexed": true,
          "internalType": "uint256",
          "name": "electionId",
          "type": "uint256"
        }
      ],
      "name": "VotingClosed",
      "type": "event"
    },
    {
      "anonymous": false,
      "inputs": [
        {
          "indexed": true,
          "internalType": "uint256",
          "name": "electionId",
          "type": "uint256"
        }
      ],
      "name": "VotingOpened",
      "type": "event"
    },
    {
      "inputs": [
        {
          "internalType": "uint256",
          "name": "",
          "type": "uint256"
        },
        {
          "internalType": "uint256",
          "name": "",
          "type": "uint256"
        }
      ],
      "name": "candidates",
      "outputs": [
        {
          "internalType": "string",
          "name": "name",
          "type": "string"
        },
        {
          "internalType": "string",
          "name": "description",
          "type": "string"
        },
        {
          "internalType": "uint256",
          "name": "voteCount",
          "type": "uint256"
        }
      ],
      "stateMutability": "view",
      "type": "function"
    },
    {
      "inputs": [],
      "name": "electionCount",
      "outputs": [
        {
          "internalType": "uint256",
          "name": "",
          "type": "uint256"
        }
      ],
      "stateMutability": "view",
      "type": "function"
    },
    {
      "inputs": [
        {
          "internalType": "uint256",
          "name": "",
          "type": "uint256"
        }
      ],
      "name": "elections",
      "outputs": [
        {
          "internalType": "string",
          "name": "name",
          "type": "string"
        },
        {
          "internalType": "string",
          "name": "description",
          "type": "string"
        },
        {
          "internalType": "string",
          "name": "organizationName",
          "type": "string"
        },
        {
          "internalType": "uint256",
          "name": "scheduledStart",
          "type": "uint256"
        },
        {
          "internalType": "uint256",
          "name": "scheduledEnd",
          "type": "uint256"
        },
        {
          "internalType": "uint256",
          "name": "startTime",
          "type": "uint256"
        },
        {
          "internalType": "uint256",
          "name": "endTime",
          "type": "uint256"
        },
        {
          "internalType": "bool",
          "name": "isActive",
          "type": "bool"
        },
        {
          "internalType": "bool",
          "name": "exists",
          "type": "bool"
        },
        {
          "internalType": "uint256",
          "name": "totalVotes",
          "type": "uint256"
        },
        {
          "internalType": "uint256",
          "name": "candidateCount",
          "type": "uint256"
        }
      ],
      "stateMutability": "view",
      "type": "function"
    },
    {
      "inputs": [],
      "name": "owner",
      "outputs": [
        {
          "internalType": "address",
          "name": "",
          "type": "address"
        }
      ],
      "stateMutability": "view",
      "type": "function"
    },
    {
      "inputs": [],
      "name": "voterFundAmount",
      "outputs": [
        {
          "internalType": "uint256",
          "name": "",
          "type": "uint256"
        }
      ],
      "stateMutability": "view",
      "type": "function"
    },
    {
      "inputs": [
        {
          "internalType": "uint256",
          "name": "",
          "type": "uint256"
        },
        {
          "internalType": "address",
          "name": "",
          "type": "address"
        }
      ],
      "name": "voters",
      "outputs": [
        {
          "internalType": "bool",
          "name": "isRegistered",
          "type": "bool"
        },
        {
          "internalType": "bool",
          "name": "hasVoted",
          "type": "bool"
        },
        {
          "internalType": "uint256",
          "name": "votedCandidateId",
          "type": "uint256"
        }
      ],
      "stateMutability": "view",
      "type": "function"
    },
    {
      "stateMutability": "payable",
      "type": "receive"
    },
    {
      "inputs": [],
      "name": "fundContract",
      "outputs": [],
      "stateMutability": "payable",
      "type": "function"
    },
    {
      "inputs": [],
      "name": "withdrawFunds",
      "outputs": [],
      "stateMutability": "nonpayable",
      "type": "function"
    },
    {
      "inputs": [
        {
          "internalType": "uint256",
          "name": "_amount",
          "type": "uint256"
        }
      ],
      "name": "setVoterFundAmount",
      "outputs": [],
      "stateMutability": "nonpayable",
      "type": "function"
    },
    {
      "inputs": [],
      "name": "getContractBalance",
      "outputs": [
        {
          "internalType": "uint256",
          "name": "",
          "type": "uint256"
        }
      ],
      "stateMutability": "view",
      "type": "function"
    },
    {
      "inputs": [
        {
          "internalType": "string",
          "name": "_name",
          "type": "string"
        },
        {
          "internalType": "string",
          "name": "_description",
          "type": "string"
        },
        {
          "internalType": "string",
          "name": "_organizationName",
          "type": "string"
        },
        {
          "internalType": "uint256",
          "name": "_scheduledStart",
          "type": "uint256"
        },
        {
          "internalType": "uint256",
          "name": "_scheduledEnd",
          "type": "uint256"
        }
      ],
      "name": "createElection",
      "outputs": [
        {
          "internalType": "uint256",
          "name": "",
          "type": "uint256"
        }
      ],
      "stateMutability": "nonpayable",
      "type": "function"
    },
    {
      "inputs": [
        {
          "internalType": "uint256",
          "name": "_electionId",
          "type": "uint256"
        },
        {
          "internalType": "string",
          "name": "_name",
          "type": "string"
        },
        {
          "internalType": "string",
          "name": "_description",
          "type": "string"
        },
        {
          "internalType": "string",
          "name": "_organizationName",
          "type": "string"
        },
        {
          "internalType": "uint256",
          "name": "_scheduledStart",
          "type": "uint256"
        },
        {
          "internalType": "uint256",
          "name": "_scheduledEnd",
          "type": "uint256"
        }
      ],
      "name": "updateElection",
      "outputs": [],
      "stateMutability": "nonpayable",
      "type": "function"
    },
    {
      "inputs": [
        {
          "internalType": "uint256",
          "name": "_electionId",
          "type": "uint256"
        }
      ],
      "name": "triggerElectionStatus",
      "outputs": [
        {
          "internalType": "bool",
          "name": "changed",
          "type": "bool"
        }
      ],
      "stateMutability": "nonpayable",
      "type": "function"
    },
    {
      "inputs": [
        {
          "internalType": "uint256",
          "name": "_electionId",
          "type": "uint256"
        },
        {
          "internalType": "string",
          "name": "_name",
          "type": "string"
        },
        {
          "internalType": "string",
          "name": "_description",
          "type": "string"
        }
      ],
      "name": "addCandidate",
      "outputs": [],
      "stateMutability": "nonpayable",
      "type": "function"
    },
    {
      "inputs": [
        {
          "internalType": "uint256",
          "name": "_electionId",
          "type": "uint256"
        }
      ],
      "name": "openVoting",
      "outputs": [],
      "stateMutability": "nonpayable",
      "type": "function"
    },
    {
      "inputs": [
        {
          "internalType": "uint256",
          "name": "_electionId",
          "type": "uint256"
        }
      ],
      "name": "closeVoting",
      "outputs": [],
      "stateMutability": "nonpayable",
      "type": "function"
    },
    {
      "inputs": [
        {
          "internalType": "uint256",
          "name": "_electionId",
          "type": "uint256"
        }
      ],
      "name": "registerSelf",
      "outputs": [],
      "stateMutability": "nonpayable",
      "type": "function"
    },
    {
      "inputs": [
        {
          "internalType": "uint256",
          "name": "_electionId",
          "type": "uint256"
        },
        {
          "internalType": "uint256",
          "name": "_candidateId",
          "type": "uint256"
        }
      ],
      "name": "castVote",
      "outputs": [],
      "stateMutability": "nonpayable",
      "type": "function"
    },
    {
      "inputs": [
        {
          "internalType": "uint256",
          "name": "_electionId",
          "type": "uint256"
        }
      ],
      "name": "getElection",
      "outputs": [
        {
          "internalType": "string",
          "name": "name",
          "type": "string"
        },
        {
          "internalType": "string",
          "name": "description",
          "type": "string"
        },
        {
          "internalType": "string",
          "name": "organizationName",
          "type": "string"
        },
        {
          "internalType": "uint256",
          "name": "scheduledStart",
          "type": "uint256"
        },
        {
          "internalType": "uint256",
          "name": "scheduledEnd",
          "type": "uint256"
        },
        {
          "internalType": "uint256",
          "name": "startTime",
          "type": "uint256"
        },
        {
          "internalType": "uint256",
          "name": "endTime",
          "type": "uint256"
        },
        {
          "internalType": "bool",
          "name": "isActive",
          "type": "bool"
        },
        {
          "internalType": "uint256",
          "name": "totalVotes",
          "type": "uint256"
        },
        {
          "internalType": "uint256",
          "name": "candidateCount",
          "type": "uint256"
        }
      ],
      "stateMutability": "view",
      "type": "function"
    },
    {
      "inputs": [
        {
          "internalType": "uint256",
          "name": "_electionId",
          "type": "uint256"
        }
      ],
      "name": "getElectionCandidates",
      "outputs": [
        {
          "internalType": "string[]",
          "name": "names",
          "type": "string[]"
        },
        {
          "internalType": "string[]",
          "name": "descriptions",
          "type": "string[]"
        },
        {
          "internalType": "uint256[]",
          "name": "voteCounts",
          "type": "uint256[]"
        }
      ],
      "stateMutability": "view",
      "type": "function"
    },
    {
      "inputs": [
        {
          "internalType": "uint256",
          "name": "_electionId",
          "type": "uint256"
        },
        {
          "internalType": "address",
          "name": "_voter",
          "type": "address"
        }
      ],
      "name": "getVoterInfo",
      "outputs": [
        {
          "internalType": "bool",
          "name": "isRegistered",
          "type": "bool"
        },
        {
          "internalType": "bool",
          "name": "hasVoted",
          "type": "bool"
        },
        {
          "internalType": "uint256",
          "name": "votedCandidateId",
          "type": "uint256"
        }
      ],
      "stateMutability": "view",
      "type": "function"
    },
    {
      "inputs": [
        {
          "internalType": "uint256",
          "name": "_electionId",
          "type": "uint256"
        }
      ],
      "name": "getElectionWinner",
      "outputs": [
        {
          "internalType": "string",
          "name": "name",
          "type": "string"
        },
        {
          "internalType": "uint256",
          "name": "voteCount",
          "type": "uint256"
        },
        {
          "internalType": "bool",
          "name": "isTie",
          "type": "bool"
        }
      ],
      "stateMutability": "view",
      "type": "function"
    },
    {
      "inputs": [
        {
          "internalType": "uint256",
          "name": "_electionId",
          "type": "uint256"
        }
      ],
      "name": "getElectionScheduleStatus",
      "outputs": [
        {
          "internalType": "bool",
          "name": "shouldOpen",
          "type": "bool"
        },
        {
          "internalType": "bool",
          "name": "shouldClose",
          "type": "bool"
        },
        {
          "internalType": "uint256",
          "name": "currentTime",
          "type": "uint256"
        }
      ],
      "stateMutability": "view",
      "type": "function"
    }
  ],
  "bytecode": "0x60806040526706f05b59d3b2000060025534801561001c57600080fd5b50600080546001600160a01b031916331790556127ca8061003e6000396000f3fe6080604052600436106101445760003560e01c80637de14242116100b6578063ca63a2471161006f578063ca63a2471461043c578063d2111a7214610452578063e159c7c514610472578063e62c6ac514610492578063e6c62efc146104c1578063fbc759a1146104e157600080fd5b80637de14242146103355780638da5cb5b14610364578063997d28301461039c5780639d710777146103b25780639e319063146103e8578063bd097e211461043457600080fd5b8063597fe0ec11610108578063597fe0ec1461023f5780635e12845e1461027c5780635e6fef01146102ab5780635e860849146102e25780635f2ba6b2146103025780636f9fb98a1461032257600080fd5b80630c3a37c41461018557806319b99e03146101ba57806324600fc3146101e85780632c0a3f89146101ff57806331cadc3b1461021f57600080fd5b366101805760405134815233907f0939f6f4877faf071412e527bc4c6d0bd65ad077e52b57334f7765265647a7f19060200160405180910390a2005b600080fd5b34801561019157600080fd5b506101a56101a0366004612022565b610501565b60405190151581526020015b60405180910390f35b3480156101c657600080fd5b506101da6101d53660046120de565b610669565b6040519081526020016101b1565b3480156101f457600080fd5b506101fd610859565b005b34801561020b57600080fd5b506101fd61021a366004612178565b6109a5565b34801561022b57600080fd5b506101fd61023a366004612022565b610c5d565b34801561024b57600080fd5b5061025f61025a366004612022565b610c8c565b6040805193151584529115156020840152908201526060016101b1565b34801561028857600080fd5b5061029c610297366004612022565b610d63565b6040516101b193929190612235565b3480156102b757600080fd5b506102cb6102c6366004612022565b61104c565b6040516101b19b9a9998979695949392919061229e565b3480156102ee57600080fd5b506101fd6102fd366004612022565b61123f565b34801561030e57600080fd5b506101fd61031d366004612022565b6113ce565b34801561032e57600080fd5b50476101da565b34801561034157600080fd5b50610355610350366004612178565b61150b565b6040516101b193929190612320565b34801561037057600080fd5b50600054610384906001600160a01b031681565b6040516001600160a01b0390911681526020016101b1565b3480156103a857600080fd5b506101da60015481565b3480156103be57600080fd5b506103d26103cd366004612022565b611648565b6040516101b19a99989796959493929190612356565b3480156103f457600080fd5b5061025f6104033660046123cf565b60056020908152600092835260408084209091529082529020805460019091015460ff808316926101009004169083565b6101fd6118b3565b34801561044857600080fd5b506101da60025481565b34801561045e57600080fd5b506101fd61046d366004612022565b61192a565b34801561047e57600080fd5b506101fd61048d36600461240b565b611a1b565b34801561049e57600080fd5b506104b26104ad366004612022565b611ba4565b6040516101b1939291906124af565b3480156104cd57600080fd5b506101fd6104dc3660046124d9565b611db0565b3480156104ed57600080fd5b5061025f6104fc3660046123cf565b611fa6565b6000818152600360205260408120600701548290610100900460ff166105425760405162461bcd60e51b815260040161053990612546565b60405180910390fd5b600083815260036020526040812060078101549193509060ff1615801561056d575060008160030154115b801561057d575080600301544210155b801561058d575060008160090154115b80156105a85750600481015415806105a85750806004015442105b156105f25760078101805460ff1916600117905542600582015560405184907fe0a358d4a766346f1ece85d22e2197435d610d9638874a0fd6746e58a1b1f58a90600090a2600192505b600781015460ff16801561060a575060008160040154115b801561061a575080600401544210155b156106615760078101805460ff1916905542600682015560405184907f8e9b46a70b3967bc9ea56ca61732c363a191fac88ae3ba011f4e030711c9011790600090a2600192505b505b50919050565b600080546001600160a01b031633146106945760405162461bcd60e51b81526004016105399061257d565b60008651116106de5760405162461bcd60e51b8152602060048201526016602482015275115b1958dd1a5bdb881b985b59481c995c5d5a5c995960521b6044820152606401610539565b8115806106ea57504282115b6107365760405162461bcd60e51b815260206004820152601e60248201527f456e642074696d65206d75737420626520696e207468652066757475726500006044820152606401610539565b821580610741575081155b8061074b57508282115b6107a15760405162461bcd60e51b815260206004820152602160248201527f456e642074696d65206d7573742062652061667465722073746172742074696d6044820152606560f81b6064820152608401610539565b6001546000818152600360205260409020806107bd8982612623565b50600181016107cc8882612623565b50600281016107db8782612623565b50600381018590556004810184905560078101805461ffff19166101001790556001805490600061080b836126f9565b9190505550817f04036e12fb7ceb5ea83048e822fc7c3f175ef1782d4f2f09cd2c09c0dfe1f852898888886040516108469493929190612712565b60405180910390a2509695505050505050565b6000546001600160a01b031633146108835760405162461bcd60e51b81526004016105399061257d565b47806108c85760405162461bcd60e51b81526020600482015260146024820152734e6f2066756e647320746f20776974686472617760601b6044820152606401610539565b600080546040516001600160a01b039091169083908381818185875af1925050503d8060008114610915576040519150601f19603f3d011682016040523d82523d6000602084013e61091a565b606091505b505090508061095f5760405162461bcd60e51b815260206004820152601160248201527015da5d1a191c985dd85b0819985a5b1959607a1b6044820152606401610539565b6000546040518381526001600160a01b03909116907feaff4b37086828766ad3268786972c0cd24259d4c87a80f9d3963a3c3d999b0d9060200160405180910390a25050565b6000828152600360205260409020600701548290610100900460ff166109dd5760405162461bcd60e51b815260040161053990612546565b6000838152600360205260409020600781015484919060ff16610a375760405162461bcd60e51b81526020600482015260126024820152712b37ba34b7339034b9903737ba1037b832b760711b6044820152606401610539565b60048101541580610a4c575080600401544211155b610a985760405162461bcd60e51b815260206004820152601760248201527f566f74696e6720706572696f642068617320656e6465640000000000000000006044820152606401610539565b600085815260056020908152604080832033845290915290205460ff16610af25760405162461bcd60e51b815260206004820152600e60248201526d139bdd081c9959da5cdd195c995960921b6044820152606401610539565b6000858152600560209081526040808320338452909152902054610100900460ff1615610b515760405162461bcd60e51b815260206004820152600d60248201526c105b1c9958591e481d9bdd1959609a1b6044820152606401610539565b6000858152600360205260409020600901548410610ba55760405162461bcd60e51b8152602060048201526011602482015270496e76616c69642063616e64696461746560781b6044820152606401610539565b60008581526005602090815260408083203384528252808320805461ff001916610100178155600180820189905589855260048452828520898652909352908320600201805491939091610bfa90849061274b565b90915550506000868152600360205260408120600801805460019290610c2190849061274b565b90915550506040518590339088907f2acce567deca3aabf56327adbb4524bd5318936eaefa69e3a5208ffda0cfec0990600090a4505050505050565b6000546001600160a01b03163314610c875760405162461bcd60e51b81526004016105399061257d565b600255565b600081815260036020526040812060070154819081908490610100900460ff16610cc85760405162461bcd60e51b815260040161053990612546565b6000858152600360205260409020600781015442935060ff16158015610cf2575060008160030154115b8015610d02575080600301544210155b8015610d12575060008160090154115b8015610d2d575060048101541580610d2d5750806004015442105b600782015490955060ff168015610d48575060008160040154115b8015610d58575080600401544210155b935050509193909250565b600081815260036020526040902060070154606090819081908490610100900460ff16610da25760405162461bcd60e51b815260040161053990612546565b6000858152600360205260409020600901548067ffffffffffffffff811115610dcd57610dcd61203b565b604051908082528060200260200182016040528015610e0057816020015b6060815260200190600190039081610deb5790505b5094508067ffffffffffffffff811115610e1c57610e1c61203b565b604051908082528060200260200182016040528015610e4f57816020015b6060815260200190600190039081610e3a5790505b5093508067ffffffffffffffff811115610e6b57610e6b61203b565b604051908082528060200260200182016040528015610e94578160200160208202803683370190505b50925060005b81811015611042576000878152600460209081526040808320848452909152902080548190610ec8906125a1565b80601f0160208091040260200160405190810160405280929190818152602001828054610ef4906125a1565b8015610f415780601f10610f1657610100808354040283529160200191610f41565b820191906000526020600020905b815481529060010190602001808311610f2457829003601f168201915b5050505050878381518110610f5857610f58612764565b6020026020010181905250806001018054610f72906125a1565b80601f0160208091040260200160405190810160405280929190818152602001828054610f9e906125a1565b8015610feb5780601f10610fc057610100808354040283529160200191610feb565b820191906000526020600020905b815481529060010190602001808311610fce57829003601f168201915b505050505086838151811061100257611002612764565b6020026020010181905250806002015485838151811061102457611024612764565b6020908102919091010152508061103a816126f9565b915050610e9a565b5050509193909250565b600360205260009081526040902080548190611067906125a1565b80601f0160208091040260200160405190810160405280929190818152602001828054611093906125a1565b80156110e05780601f106110b5576101008083540402835291602001916110e0565b820191906000526020600020905b8154815290600101906020018083116110c357829003601f168201915b5050505050908060010180546110f5906125a1565b80601f0160208091040260200160405190810160405280929190818152602001828054611121906125a1565b801561116e5780601f106111435761010080835404028352916020019161116e565b820191906000526020600020905b81548152906001019060200180831161115157829003601f168201915b505050505090806002018054611183906125a1565b80601f01602080910402602001604051908101604052809291908181526020018280546111af906125a1565b80156111fc5780601f106111d1576101008083540402835291602001916111fc565b820191906000526020600020905b8154815290600101906020018083116111df57829003601f168201915b505050600384015460048501546005860154600687015460078801546008890154600990990154979894979396509194509260ff8083169361010090930416918b565b6000818152600360205260409020600701548190610100900460ff166112775760405162461bcd60e51b815260040161053990612546565b600082815260056020908152604080832033845290915290205460ff16156112d65760405162461bcd60e51b8152602060048201526012602482015271105b1c9958591e481c9959da5cdd195c995960721b6044820152606401610539565b6000828152600560209081526040808320338085529252808320805460ff1916600117905551909184917ff45b8429c36d478f9a6d081c4811a819b98aa5b608588bed9d406405cf2824739190a3600060025411801561133857506002544710155b156113ca5760025460405160009133918381818185875af1925050503d8060008114611380576040519150601f19603f3d011682016040523d82523d6000602084013e611385565b606091505b5050905080156113c85760025460405190815233907f48f9088bb25a7f912c12e48072c7b83fb46f78cf10f404eb524c6ea2a9ac8ac19060200160405180910390a25b505b5050565b6000546001600160a01b031633146113f85760405162461bcd60e51b81526004016105399061257d565b6000818152600360205260409020600701548190610100900460ff166114305760405162461bcd60e51b815260040161053990612546565b6000828152600360205260409020600781015460ff16156114825760405162461bcd60e51b815260206004820152600c60248201526b20b63932b0b23c9037b832b760a11b6044820152606401610539565b60008160090154116114c65760405162461bcd60e51b815260206004820152600d60248201526c4e6f2063616e6469646174657360981b6044820152606401610539565b60078101805460ff1916600117905542600582015560405183907fe0a358d4a766346f1ece85d22e2197435d610d9638874a0fd6746e58a1b1f58a90600090a2505050565b6004602090815260009283526040808420909152908252902080548190611531906125a1565b80601f016020809104026020016040519081016040528092919081815260200182805461155d906125a1565b80156115aa5780601f1061157f576101008083540402835291602001916115aa565b820191906000526020600020905b81548152906001019060200180831161158d57829003601f168201915b5050505050908060010180546115bf906125a1565b80601f01602080910402602001604051908101604052809291908181526020018280546115eb906125a1565b80156116385780601f1061160d57610100808354040283529160200191611638565b820191906000526020600020905b81548152906001019060200180831161161b57829003601f168201915b5050505050908060020154905083565b606080606060008060008060008060008a6003600082815260200190815260200160002060070160019054906101000a900460ff166116995760405162461bcd60e51b815260040161053990612546565b6000600360008e8152602001908152602001600020905080600001816001018260020183600301548460040154856005015486600601548760070160009054906101000a900460ff16886008015489600901548980546116f8906125a1565b80601f0160208091040260200160405190810160405280929190818152602001828054611724906125a1565b80156117715780601f1061174657610100808354040283529160200191611771565b820191906000526020600020905b81548152906001019060200180831161175457829003601f168201915b50505050509950888054611784906125a1565b80601f01602080910402602001604051908101604052809291908181526020018280546117b0906125a1565b80156117fd5780601f106117d2576101008083540402835291602001916117fd565b820191906000526020600020905b8154815290600101906020018083116117e057829003601f168201915b50505050509850878054611810906125a1565b80601f016020809104026020016040519081016040528092919081815260200182805461183c906125a1565b80156118895780601f1061185e57610100808354040283529160200191611889565b820191906000526020600020905b81548152906001019060200180831161186c57829003601f168201915b505050505097509b509b509b509b509b509b509b509b509b509b5050509193959799509193959799565b600034116118f35760405162461bcd60e51b815260206004820152600d60248201526c135d5cdd081cd95b99081413d3609a1b6044820152606401610539565b60405134815233907f0939f6f4877faf071412e527bc4c6d0bd65ad077e52b57334f7765265647a7f19060200160405180910390a2565b6000546001600160a01b031633146119545760405162461bcd60e51b81526004016105399061257d565b6000818152600360205260409020600701548190610100900460ff1661198c5760405162461bcd60e51b815260040161053990612546565b6000828152600360205260409020600781015460ff166119d95760405162461bcd60e51b81526020600482015260086024820152672737ba1037b832b760c11b6044820152606401610539565b60078101805460ff1916905542600682015560405183907f8e9b46a70b3967bc9ea56ca61732c363a191fac88ae3ba011f4e030711c9011790600090a2505050565b6000546001600160a01b03163314611a455760405162461bcd60e51b81526004016105399061257d565b6000868152600360205260409020600701548690610100900460ff16611a7d5760405162461bcd60e51b815260040161053990612546565b60008781526003602052604090206007015460ff1615611adf5760405162461bcd60e51b815260206004820152601d60248201527f43616e6e6f74207570646174652061637469766520656c656374696f6e0000006044820152606401610539565b6000865111611b295760405162461bcd60e51b8152602060048201526016602482015275115b1958dd1a5bdb881b985b59481c995c5d5a5c995960521b6044820152606401610539565b600087815260036020526040902080611b428882612623565b5060018101611b518782612623565b5060028101611b608682612623565b50600381018490556004810183905560405188907f854af44d21d79226bc4098391d8a0d758fdf98e7004e5381cf3c1be76b65da2090600090a25050505050505050565b6000818152600360205260408120600701546060919081908490610100900460ff16611be25760405162461bcd60e51b815260040161053990612546565b6000858152600360205260409020600781015460ff1615611c3c5760405162461bcd60e51b81526020600482015260146024820152732b37ba34b7339034b99039ba34b6361037b832b760611b6044820152606401610539565b6000816009015411611c805760405162461bcd60e51b815260206004820152600d60248201526c4e6f2063616e6469646174657360981b6044820152606401610539565b6000806000805b8460090154811015611cf35760008a815260046020908152604080832084845290915290206002015484811115611cc75780945081935060009250611ce0565b8481148015611cd65750600082115b15611ce057600192505b5080611ceb816126f9565b915050611c87565b50600089815260046020908152604080832085845290915290208054849083908390611d1e906125a1565b80601f0160208091040260200160405190810160405280929190818152602001828054611d4a906125a1565b8015611d975780601f10611d6c57610100808354040283529160200191611d97565b820191906000526020600020905b815481529060010190602001808311611d7a57829003601f168201915b5050505050925097509750975050505050509193909250565b6000546001600160a01b03163314611dda5760405162461bcd60e51b81526004016105399061257d565b6000838152600360205260409020600701548390610100900460ff16611e125760405162461bcd60e51b815260040161053990612546565b60008481526003602052604090206007015460ff1615611e865760405162461bcd60e51b815260206004820152602960248201527f43616e6e6f74206164642063616e646964617465207768696c6520766f74696e604482015268339034b99037b832b760b91b6064820152608401610539565b6000835111611ed75760405162461bcd60e51b815260206004820152601760248201527f43616e646964617465206e616d652072657175697265640000000000000000006044820152606401610539565b600084815260036020908152604080832060090154815160608101835287815280840187905280830185905288855260048452828520828652909352922081518190611f239082612623565b5060208201516001820190611f389082612623565b5060409182015160029091015560008681526003602052908120600901805491611f61836126f9565b919050555080857fed8911b3df733b7d5f75724158e54478ea12e30f49c9d31b5261879f5b76586f86604051611f97919061277a565b60405180910390a35050505050565b600082815260036020526040812060070154819081908590610100900460ff16611fe25760405162461bcd60e51b815260040161053990612546565b5050506000928352506005602090815260408084206001600160a01b039390931684529190529020805460019091015460ff808316936101009093041691565b60006020828403121561203457600080fd5b5035919050565b634e487b7160e01b600052604160045260246000fd5b600082601f83011261206257600080fd5b813567ffffffffffffffff8082111561207d5761207d61203b565b604051601f8301601f19908116603f011681019082821181831017156120a5576120a561203b565b816040528381528660208588010111156120be57600080fd5b836020870160208301376000602085830101528094505050505092915050565b600080600080600060a086880312156120f657600080fd5b853567ffffffffffffffff8082111561210e57600080fd5b61211a89838a01612051565b9650602088013591508082111561213057600080fd5b61213c89838a01612051565b9550604088013591508082111561215257600080fd5b5061215f88828901612051565b9598949750949560608101359550608001359392505050565b6000806040838503121561218b57600080fd5b50508035926020909101359150565b6000815180845260005b818110156121c0576020818501810151868301820152016121a4565b506000602082860101526020601f19601f83011685010191505092915050565b600081518084526020808501808196508360051b8101915082860160005b8581101561222857828403895261221684835161219a565b988501989350908401906001016121fe565b5091979650505050505050565b60608152600061224860608301866121e0565b60208382038185015261225b82876121e0565b8481036040860152855180825282870193509082019060005b8181101561229057845183529383019391830191600101612274565b509098975050505050505050565b60006101608083526122b28184018f61219a565b905082810360208401526122c6818e61219a565b905082810360408401526122da818d61219a565b606084019b909b525050608081019790975260a087019590955260c086019390935290151560e08501521515610100840152610120830152610140909101529392505050565b606081526000612333606083018661219a565b8281036020840152612345818661219a565b915050826040830152949350505050565b600061014080835261236a8184018e61219a565b9050828103602084015261237e818d61219a565b90508281036040840152612392818c61219a565b606084019a909a525050608081019690965260a086019490945260c0850192909252151560e0840152610100830152610120909101529392505050565b600080604083850312156123e257600080fd5b8235915060208301356001600160a01b038116811461240057600080fd5b809150509250929050565b60008060008060008060c0878903121561242457600080fd5b86359550602087013567ffffffffffffffff8082111561244357600080fd5b61244f8a838b01612051565b9650604089013591508082111561246557600080fd5b6124718a838b01612051565b9550606089013591508082111561248757600080fd5b5061249489828a01612051565b9350506080870135915060a087013590509295509295509295565b6060815260006124c2606083018661219a565b602083019490945250901515604090910152919050565b6000806000606084860312156124ee57600080fd5b83359250602084013567ffffffffffffffff8082111561250d57600080fd5b61251987838801612051565b9350604086013591508082111561252f57600080fd5b5061253c86828701612051565b9150509250925092565b60208082526017908201527f456c656374696f6e20646f6573206e6f74206578697374000000000000000000604082015260600190565b6020808252600a908201526927b7363c9037bbb732b960b11b604082015260600190565b600181811c908216806125b557607f821691505b60208210810361066357634e487b7160e01b600052602260045260246000fd5b601f8211156113c857600081815260208120601f850160051c810160208610156125fc5750805b601f850160051c820191505b8181101561261b57828155600101612608565b505050505050565b815167ffffffffffffffff81111561263d5761263d61203b565b6126518161264b84546125a1565b846125d5565b602080601f831160018114612686576000841561266e5750858301515b600019600386901b1c1916600185901b17855561261b565b600085815260208120601f198616915b828110156126b557888601518255948401946001909101908401612696565b50858210156126d35787850151600019600388901b60f8161c191681555b5050505050600190811b01905550565b634e487b7160e01b600052601160045260246000fd5b60006001820161270b5761270b6126e3565b5060010190565b608081526000612725608083018761219a565b8281036020840152612737818761219a565b604084019590955250506060015292915050565b8082018082111561275e5761275e6126e3565b92915050565b634e487b7160e01b600052603260045260246000fd5b60208152600061278d602083018461219a565b939250505056fea26469706673582212204adc7ca29a3d9c32329b5c4959d5f632352b298bfc6f830f47339462424a9fbb64736f6c63430008130033",
  "immutableReferences": {},
  "source": "// SPDX-License-Identifier: MIT\npragma solidity ^0.8.19;\n\ncontract VotingSystem {\n    // ── Structs ──────────────────────────────────────────────\n    struct Voter {\n        bool isRegistered;\n        bool hasVoted;\n        uint256 votedCandidateId;\n    }\n\n    struct Candidate {\n        string name;\n        string description;\n        uint256 voteCount;\n    }\n\n    struct Election {\n        string name;\n        string description;\n        string organizationName;\n        uint256 scheduledStart;  // 0 = manual control only\n        uint256 scheduledEnd;    // 0 = no auto-close\n        uint256 startTime;       // actual start (set when opened)\n        uint256 endTime;         // actual end (set when closed)\n        bool isActive;\n        bool exists;\n        uint256 totalVotes;\n        uint256 candidateCount;\n    }\n\n    // ── State ────────────────────────────────────────────────\n    address public owner;\n    uint256 public electionCount;\n    uint256 public voterFundAmount = 0.5 ether; // 0.5 POL\n\n    // electionId => Election metadata\n    mapping(uint256 => Election) public elections;\n    // electionId => candidateIndex => Candidate\n    mapping(uint256 => mapping(uint256 => Candidate)) public candidates;\n    // electionId => voterAddress => Voter\n    mapping(uint256 => mapping(address => Voter)) public voters;\n\n    // ── Events ───────────────────────────────────────────────\n    event ElectionCreated(uint256 indexed electionId, string name, string organizationName, uint256 scheduledStart, uint256 scheduledEnd);\n    event ElectionUpdated(uint256 indexed electionId);\n    event CandidateAdded(uint256 indexed electionId, uint256 indexed candidateId, string name);\n    event VoterRegistered(uint256 indexed electionId, address indexed voter);\n    event VoterFunded(address indexed voter, uint256 amount);\n    event VoteCast(uint256 indexed electionId, address indexed voter, uint256 indexed candidateId);\n    event VotingOpened(uint256 indexed electionId);\n    event VotingClosed(uint256 indexed electionId);\n    event ContractFunded(address indexed funder, uint256 amount);\n    event FundsWithdrawn(address indexed owner, uint256 amount);\n\n    // ── Modifiers ────────────────────────────────────────────\n    modifier onlyOwner() {\n        require(msg.sender == owner, \"Only owner\");\n        _;\n    }\n\n    modifier electionExists(uint256 _electionId) {\n        require(elections[_electionId].exists, \"Election does not exist\");\n        _;\n    }\n\n    modifier whenVotingOpen(uint256 _electionId) {\n        Election storage e = elections[_electionId];\n        require(e.isActive, \"Voting is not open\");\n        // If a scheduled end time is set and it has passed, block voting\n        require(\n            e.scheduledEnd == 0 || block.timestamp <= e.scheduledEnd,\n            \"Voting period has ended\"\n        );\n        _;\n    }\n\n    // ── Constructor ──────────────────────────────────────────\n    constructor() {\n        owner = msg.sender;\n    }\n\n    // ── Receive POL to fund voter registrations ──────────────\n    receive() external payable {\n        emit ContractFunded(msg.sender, msg.value);\n    }\n\n    function fundContract() external payable {\n        require(msg.value > 0, \"Must send POL\");\n        emit ContractFunded(msg.sender, msg.value);\n    }\n\n    function withdrawFunds() external onlyOwner {\n        uint256 balance = address(this).balance;\n        require(balance > 0, \"No funds to withdraw\");\n        (bool sent, ) = payable(owner).call{value: balance}(\"\");\n        require(sent, \"Withdrawal failed\");\n        emit FundsWithdrawn(owner, balance);\n    }\n\n    function setVoterFundAmount(uint256 _amount) external onlyOwner {\n        voterFundAmount = _amount;\n    }\n\n    function getContractBalance() external view returns (uint256) {\n        return address(this).balance;\n    }\n\n    // ── Election Management (Owner Only) ─────────────────────\n    /**\n     * @param _scheduledStart Unix timestamp for auto-open (0 = manual only)\n     * @param _scheduledEnd   Unix timestamp for auto-close (0 = no auto-close)\n     */\n    function createElection(\n        string memory _name,\n        string memory _description,\n        string memory _organizationName,\n        uint256 _scheduledStart,\n        uint256 _scheduledEnd\n    ) external onlyOwner returns (uint256) {\n        require(bytes(_name).length > 0, \"Election name required\");\n        require(\n            _scheduledEnd == 0 || _scheduledEnd > block.timestamp,\n            \"End time must be in the future\"\n        );\n        require(\n            _scheduledStart == 0 || _scheduledEnd == 0 || _scheduledEnd > _scheduledStart,\n            \"End time must be after start time\"\n        );\n\n        uint256 electionId = electionCount;\n        Election storage e = elections[electionId];\n        e.name = _name;\n        e.description = _description;\n        e.organizationName = _organizationName;\n        e.scheduledStart = _scheduledStart;\n        e.scheduledEnd = _scheduledEnd;\n        e.exists = true;\n        e.isActive = false;\n\n        electionCount++;\n        emit ElectionCreated(electionId, _name, _organizationName, _scheduledStart, _scheduledEnd);\n        return electionId;\n    }\n\n    function updateElection(\n        uint256 _electionId,\n        string memory _name,\n        string memory _description,\n        string memory _organizationName,\n        uint256 _scheduledStart,\n        uint256 _scheduledEnd\n    ) external onlyOwner electionExists(_electionId) {\n        require(!elections[_electionId].isActive, \"Cannot update active election\");\n        require(bytes(_name).length > 0, \"Election name required\");\n\n        Election storage e = elections[_electionId];\n        e.name = _name;\n        e.description = _description;\n        e.organizationName = _organizationName;\n        e.scheduledStart = _scheduledStart;\n        e.scheduledEnd = _scheduledEnd;\n\n        emit ElectionUpdated(_electionId);\n    }\n\n    /**\n     * @notice Anyone can call this to trigger auto-open or auto-close\n     *         based on the scheduled times. Returns true if any state changed.\n     */\n    function triggerElectionStatus(uint256 _electionId)\n        external\n        electionExists(_electionId)\n        returns (bool changed)\n    {\n        Election storage e = elections[_electionId];\n        changed = false;\n\n        // Auto-open: not yet active, scheduled start reached, has candidates\n        if (\n            !e.isActive &&\n            e.scheduledStart > 0 &&\n            block.timestamp >= e.scheduledStart &&\n            e.candidateCount > 0 &&\n            (e.scheduledEnd == 0 || block.timestamp < e.scheduledEnd)\n        ) {\n            e.isActive = true;\n            e.startTime = block.timestamp;\n            emit VotingOpened(_electionId);\n            changed = true;\n        }\n\n        // Auto-close: active, scheduled end passed\n        if (e.isActive && e.scheduledEnd > 0 && block.timestamp >= e.scheduledEnd) {\n            e.isActive = false;\n            e.endTime = block.timestamp;\n            emit VotingClosed(_electionId);\n            changed = true;\n        }\n\n        return changed;\n    }\n\n    // ── Candidate Management ─────────────────────────────────\n    function addCandidate(\n        uint256 _electionId,\n        string memory _name,\n        string memory _description\n    ) external onlyOwner electionExists(_electionId) {\n        require(!elections[_electionId].isActive, \"Cannot add candidate while voting is open\");\n        require(bytes(_name).length > 0, \"Candidate name required\");\n\n        uint256 candidateId = elections[_electionId].candidateCount;\n        candidates[_electionId][candidateId] = Candidate({\n            name: _name,\n            description: _description,\n            voteCount: 0\n        });\n        elections[_electionId].candidateCount++;\n\n        emit CandidateAdded(_electionId, candidateId, _name);\n    }\n\n    // ── Voting Lifecycle (Manual Controls) ───────────────────\n    function openVoting(uint256 _electionId) external onlyOwner electionExists(_electionId) {\n        Election storage e = elections[_electionId];\n        require(!e.isActive, \"Already open\");\n        require(e.candidateCount > 0, \"No candidates\");\n        e.isActive = true;\n        e.startTime = block.timestamp;\n        emit VotingOpened(_electionId);\n    }\n\n    function closeVoting(uint256 _electionId) external onlyOwner electionExists(_electionId) {\n        Election storage e = elections[_electionId];\n        require(e.isActive, \"Not open\");\n        e.isActive = false;\n        e.endTime = block.timestamp;\n        emit VotingClosed(_electionId);\n    }\n\n    // ── Voter Self-Registration + Auto-Fund ──────────────────\n    function registerSelf(uint256 _electionId) external electionExists(_electionId) {\n        require(!voters[_electionId][msg.sender].isRegistered, \"Already registered\");\n\n        voters[_electionId][msg.sender].isRegistered = true;\n        emit VoterRegistered(_electionId, msg.sender);\n\n        // Auto-fund: send POL to the new voter so they can pay gas\n        if (voterFundAmount > 0 && address(this).balance >= voterFundAmount) {\n            (bool sent, ) = payable(msg.sender).call{value: voterFundAmount}(\"\");\n            if (sent) {\n                emit VoterFunded(msg.sender, voterFundAmount);\n            }\n        }\n    }\n\n    // ── Casting Votes ────────────────────────────────────────\n    function castVote(\n        uint256 _electionId,\n        uint256 _candidateId\n    ) external electionExists(_electionId) whenVotingOpen(_electionId) {\n        require(voters[_electionId][msg.sender].isRegistered, \"Not registered\");\n        require(!voters[_electionId][msg.sender].hasVoted, \"Already voted\");\n        require(_candidateId < elections[_electionId].candidateCount, \"Invalid candidate\");\n\n        Voter storage v = voters[_electionId][msg.sender];\n        v.hasVoted = true;\n        v.votedCandidateId = _candidateId;\n\n        candidates[_electionId][_candidateId].voteCount += 1;\n        elections[_electionId].totalVotes += 1;\n\n        emit VoteCast(_electionId, msg.sender, _candidateId);\n    }\n\n    // ── Read Helpers ─────────────────────────────────────────\n    function getElection(uint256 _electionId)\n        external\n        view\n        electionExists(_electionId)\n        returns (\n            string memory name,\n            string memory description,\n            string memory organizationName,\n            uint256 scheduledStart,\n            uint256 scheduledEnd,\n            uint256 startTime,\n            uint256 endTime,\n            bool isActive,\n            uint256 totalVotes,\n            uint256 candidateCount\n        )\n    {\n        Election storage e = elections[_electionId];\n        return (\n            e.name, e.description, e.organizationName,\n            e.scheduledStart, e.scheduledEnd,\n            e.startTime, e.endTime,\n            e.isActive, e.totalVotes, e.candidateCount\n        );\n    }\n\n    function getElectionCandidates(uint256 _electionId)\n        external\n        view\n        electionExists(_electionId)\n        returns (string[] memory names, string[] memory descriptions, uint256[] memory voteCounts)\n    {\n        uint256 len = elections[_electionId].candidateCount;\n        names = new string[](len);\n        descriptions = new string[](len);\n        voteCounts = new uint256[](len);\n        for (uint256 i = 0; i < len; i++) {\n            Candidate storage c = candidates[_electionId][i];\n            names[i] = c.name;\n            descriptions[i] = c.description;\n            voteCounts[i] = c.voteCount;\n        }\n    }\n\n    function getVoterInfo(uint256 _electionId, address _voter)\n        external\n        view\n        electionExists(_electionId)\n        returns (bool isRegistered, bool hasVoted, uint256 votedCandidateId)\n    {\n        Voter storage v = voters[_electionId][_voter];\n        return (v.isRegistered, v.hasVoted, v.votedCandidateId);\n    }\n\n    function getElectionWinner(uint256 _electionId)\n        external\n        view\n        electionExists(_electionId)\n        returns (string memory name, uint256 voteCount, bool isTie)\n    {\n        Election storage e = elections[_electionId];\n        require(!e.isActive, \"Voting is still open\");\n        require(e.candidateCount > 0, \"No candidates\");\n\n        uint256 winningCount = 0;\n        uint256 winningIndex = 0;\n        bool tie = false;\n\n        for (uint256 i = 0; i < e.candidateCount; i++) {\n            uint256 v = candidates[_electionId][i].voteCount;\n            if (v > winningCount) {\n                winningCount = v;\n                winningIndex = i;\n                tie = false;\n            } else if (v == winningCount && i > 0) {\n                tie = true;\n            }\n        }\n\n        return (candidates[_electionId][winningIndex].name, winningCount, tie);\n    }\n\n    // ── Convenience: check if auto-trigger would change anything ──\n    function getElectionScheduleStatus(uint256 _electionId)\n        external\n        view\n        electionExists(_electionId)\n        returns (\n            bool shouldOpen,   // true if triggerElectionStatus would open it\n            bool shouldClose,  // true if triggerElectionStatus would close it\n            uint256 currentTime\n        )\n    {\n        Election storage e = elections[_electionId];\n        currentTime = block.timestamp;\n\n        shouldOpen = (\n            !e.isActive &&\n            e.scheduledStart > 0 &&\n            block.timestamp >= e.scheduledStart &&\n            e.candidateCount > 0 &&\n            (e.scheduledEnd == 0 || block.timestamp < e.scheduledEnd)\n        );\n\n        shouldClose = (\n            e.isActive &&\n            e.scheduledEnd > 0 &&\n            block.timestamp >= e.scheduledEnd\n        );\n    }\n}",
  "sourcePath": "C:\\Users\\Vraj\\Desktop\\Minor final\\blockchain-voting-system final - polygon\\blockchain-voting-system\\blockchain\\contracts\\VotingSystem.sol",
  "compiler": {
    "name": "solc",
    "version": "0.8.19+commit.7dd6d404.Emscripten.clang"
  },
  "schemaVersion": "3.4.16",
  "updatedAt": "2026-03-25T04:29:39.666Z",
  "devdoc": {
    "kind": "dev",
    "methods": {
      "createElection(string,string,string,uint256,uint256)": {
        "params": {
          "_scheduledEnd": "Unix timestamp for auto-close (0 = no auto-close)",
          "_scheduledStart": "Unix timestamp for auto-open (0 = manual only)"
        }
      }
    },
    "version": 1
  },
  "userdoc": {
    "kind": "user",
    "methods": {
      "triggerElectionStatus(uint256)": {
        "notice": "Anyone can call this to trigger auto-open or auto-close         based on the scheduled times. Returns true if any state changed."
      }
    },
    "version": 1
  }
}